{"abi":[{"type":"constructor","inputs":[{"name":"Execution","type":"address","internalType":"address"},{"name":"Membrane","type":"address","internalType":"address"}],"stateMutability":"nonpayable"},{"type":"function","name":"Will","inputs":[],"outputs":[{"name":"","type":"address","internalType":"address"}],"stateMutability":"view"},{"type":"function","name":"allMembersOf","inputs":[{"name":"fid_","type":"uint256","internalType":"uint256"}],"outputs":[{"name":"","type":"address[]","internalType":"address[]"}],"stateMutability":"view"},{"type":"function","name":"asRootValuation","inputs":[{"name":"target_","type":"uint256","internalType":"uint256"},{"name":"amount","type":"uint256","internalType":"uint256"}],"outputs":[{"name":"","type":"uint256","internalType":"uint256"}],"stateMutability":"view"},{"type":"function","name":"balanceOf","inputs":[{"name":"owner","type":"address","internalType":"address"},{"name":"id","type":"uint256","internalType":"uint256"}],"outputs":[{"name":"result","type":"uint256","internalType":"uint256"}],"stateMutability":"view"},{"type":"function","name":"balanceOfBatch","inputs":[{"name":"owners","type":"address[]","internalType":"address[]"},{"name":"ids","type":"uint256[]","internalType":"uint256[]"}],"outputs":[{"name":"balances","type":"uint256[]","internalType":"uint256[]"}],"stateMutability":"view"},{"type":"function","name":"burn","inputs":[{"name":"fid_","type":"uint256","internalType":"uint256"},{"name":"amount_","type":"uint256","internalType":"uint256"}],"outputs":[{"name":"topVal","type":"uint256","internalType":"uint256"}],"stateMutability":"nonpayable"},{"type":"function","name":"burnPath","inputs":[{"name":"target_","type":"uint256","internalType":"uint256"},{"name":"amount","type":"uint256","internalType":"uint256"}],"outputs":[],"stateMutability":"nonpayable"},{"type":"function","name":"calculateUserTargetedPreferenceAmount","inputs":[{"name":"childId","type":"uint256","internalType":"uint256"},{"name":"parentId","type":"uint256","internalType":"uint256"},{"name":"signal","type":"uint256","internalType":"uint256"},{"name":"user","type":"address","internalType":"address"}],"outputs":[{"name":"","type":"uint256","internalType":"uint256"}],"stateMutability":"view"},{"type":"function","name":"control","inputs":[{"name":"","type":"uint256","internalType":"uint256"}],"outputs":[{"name":"","type":"address","internalType":"address"}],"stateMutability":"view"},{"type":"function","name":"createEndpointForOwner","inputs":[{"name":"nodeId_","type":"uint256","internalType":"uint256"},{"name":"owner","type":"address","internalType":"address"}],"outputs":[{"name":"endpointAddress","type":"address","internalType":"address"}],"stateMutability":"nonpayable"},{"type":"function","name":"executionAddress","inputs":[],"outputs":[{"name":"","type":"address","internalType":"address"}],"stateMutability":"view"},{"type":"function","name":"getAllNodesForRoot","inputs":[{"name":"rootAddress","type":"address","internalType":"address"},{"name":"userIfAny","type":"address","internalType":"address"}],"outputs":[{"name":"nodes","type":"tuple[]","internalType":"struct NodeState[]","components":[{"name":"basicInfo","type":"string[12]","internalType":"string[12]"},{"name":"membraneMeta","type":"string","internalType":"string"},{"name":"membersOfNode","type":"address[]","internalType":"address[]"},{"name":"childrenNodes","type":"string[]","internalType":"string[]"},{"name":"movementEndpoints","type":"address[]","internalType":"address[]"},{"name":"rootPath","type":"string[]","internalType":"string[]"},{"name":"signals","type":"tuple[]","internalType":"struct UserSignal[]","components":[{"name":"MembraneInflation","type":"string[2][]","internalType":"string[2][]"},{"name":"lastRedistSignal","type":"string[]","internalType":"string[]"}]}]}],"stateMutability":"view"},{"type":"function","name":"getChildrenOf","inputs":[{"name":"fid_","type":"uint256","internalType":"uint256"}],"outputs":[{"name":"","type":"uint256[]","internalType":"uint256[]"}],"stateMutability":"view"},{"type":"function","name":"getFidPath","inputs":[{"name":"fid_","type":"uint256","internalType":"uint256"}],"outputs":[{"name":"fids","type":"uint256[]","internalType":"uint256[]"}],"stateMutability":"view"},{"type":"function","name":"getMembraneOf","inputs":[{"name":"fid_","type":"uint256","internalType":"uint256"}],"outputs":[{"name":"","type":"uint256","internalType":"uint256"}],"stateMutability":"view"},{"type":"function","name":"getNodeData","inputs":[{"name":"nodeId","type":"uint256","internalType":"uint256"},{"name":"user","type":"address","internalType":"address"}],"outputs":[{"name":"nodeData","type":"tuple","internalType":"struct NodeState","components":[{"name":"basicInfo","type":"string[12]","internalType":"string[12]"},{"name":"membraneMeta","type":"string","internalType":"string"},{"name":"membersOfNode","type":"address[]","internalType":"address[]"},{"name":"childrenNodes","type":"string[]","internalType":"string[]"},{"name":"movementEndpoints","type":"address[]","internalType":"address[]"},{"name":"rootPath","type":"string[]","internalType":"string[]"},{"name":"signals","type":"tuple[]","internalType":"struct UserSignal[]","components":[{"name":"MembraneInflation","type":"string[2][]","internalType":"string[2][]"},{"name":"lastRedistSignal","type":"string[]","internalType":"string[]"}]}]}],"stateMutability":"view"},{"type":"function","name":"getNodes","inputs":[{"name":"nodeIds","type":"uint256[]","internalType":"uint256[]"}],"outputs":[{"name":"nodes","type":"tuple[]","internalType":"struct NodeState[]","components":[{"name":"basicInfo","type":"string[12]","internalType":"string[12]"},{"name":"membraneMeta","type":"string","internalType":"string"},{"name":"membersOfNode","type":"address[]","internalType":"address[]"},{"name":"childrenNodes","type":"string[]","internalType":"string[]"},{"name":"movementEndpoints","type":"address[]","internalType":"address[]"},{"name":"rootPath","type":"string[]","internalType":"string[]"},{"name":"signals","type":"tuple[]","internalType":"struct UserSignal[]","components":[{"name":"MembraneInflation","type":"string[2][]","internalType":"string[2][]"},{"name":"lastRedistSignal","type":"string[]","internalType":"string[]"}]}]}],"stateMutability":"view"},{"type":"function","name":"getParentOf","inputs":[{"name":"fid_","type":"uint256","internalType":"uint256"}],"outputs":[{"name":"","type":"uint256","internalType":"uint256"}],"stateMutability":"view"},{"type":"function","name":"getUserNodeSignals","inputs":[{"name":"signalOrigin","type":"address","internalType":"address"},{"name":"parentNodeId","type":"uint256","internalType":"uint256"}],"outputs":[{"name":"UserNodeSignals","type":"uint256[2][]","internalType":"uint256[2][]"}],"stateMutability":"view"},{"type":"function","name":"inParentDenomination","inputs":[{"name":"amt_","type":"uint256","internalType":"uint256"},{"name":"id_","type":"uint256","internalType":"uint256"}],"outputs":[{"name":"inParentVal","type":"uint256","internalType":"uint256"}],"stateMutability":"view"},{"type":"function","name":"inflationOf","inputs":[{"name":"nodeId","type":"uint256","internalType":"uint256"}],"outputs":[{"name":"","type":"uint256","internalType":"uint256"}],"stateMutability":"view"},{"type":"function","name":"initSelfControl","inputs":[],"outputs":[{"name":"","type":"address","internalType":"address"}],"stateMutability":"nonpayable"},{"type":"function","name":"isApprovedForAll","inputs":[{"name":"owner","type":"address","internalType":"address"},{"name":"operator","type":"address","internalType":"address"}],"outputs":[{"name":"result","type":"bool","internalType":"bool"}],"stateMutability":"view"},{"type":"function","name":"isMember","inputs":[{"name":"whoabout_","type":"address","internalType":"address"},{"name":"whereabout_","type":"uint256","internalType":"uint256"}],"outputs":[{"name":"","type":"bool","internalType":"bool"}],"stateMutability":"view"},{"type":"function","name":"localizeEndpoint","inputs":[{"name":"endpoint_","type":"address","internalType":"address"},{"name":"endpointParent_","type":"uint256","internalType":"uint256"},{"name":"owner_","type":"address","internalType":"address"}],"outputs":[],"stateMutability":"nonpayable"},{"type":"function","name":"membershipEnforce","inputs":[{"name":"target","type":"address","internalType":"address"},{"name":"fid_","type":"uint256","internalType":"uint256"}],"outputs":[{"name":"s","type":"bool","internalType":"bool"}],"stateMutability":"nonpayable"},{"type":"function","name":"membershipID","inputs":[{"name":"fid_","type":"uint256","internalType":"uint256"}],"outputs":[{"name":"","type":"uint256","internalType":"uint256"}],"stateMutability":"pure"},{"type":"function","name":"mint","inputs":[{"name":"fid_","type":"uint256","internalType":"uint256"},{"name":"amount_","type":"uint256","internalType":"uint256"}],"outputs":[],"stateMutability":"nonpayable"},{"type":"function","name":"mintInflation","inputs":[{"name":"node","type":"uint256","internalType":"uint256"}],"outputs":[{"name":"amount","type":"uint256","internalType":"uint256"}],"stateMutability":"nonpayable"},{"type":"function","name":"mintMembership","inputs":[{"name":"fid_","type":"uint256","internalType":"uint256"}],"outputs":[],"stateMutability":"nonpayable"},{"type":"function","name":"mintPath","inputs":[{"name":"target_","type":"uint256","internalType":"uint256"},{"name":"amount_","type":"uint256","internalType":"uint256"}],"outputs":[],"stateMutability":"nonpayable"},{"type":"function","name":"name","inputs":[],"outputs":[{"name":"","type":"string","internalType":"string"}],"stateMutability":"view"},{"type":"function","name":"options","inputs":[{"name":"NodeXUserXValue","type":"bytes32","internalType":"bytes32"},{"name":"","type":"uint256","internalType":"uint256"}],"outputs":[{"name":"valueAtTime","type":"uint256","internalType":"uint256"}],"stateMutability":"view"},{"type":"function","name":"redistribute","inputs":[{"name":"nodeId_","type":"uint256","internalType":"uint256"}],"outputs":[{"name":"distributedAmt","type":"uint256","internalType":"uint256"}],"stateMutability":"nonpayable"},{"type":"function","name":"redistributePath","inputs":[{"name":"nodeId_","type":"uint256","internalType":"uint256"}],"outputs":[{"name":"distributedAmt","type":"uint256","internalType":"uint256"}],"stateMutability":"nonpayable"},{"type":"function","name":"resignal","inputs":[{"name":"targetNode_","type":"uint256","internalType":"uint256"},{"name":"signals","type":"uint256[]","internalType":"uint256[]"},{"name":"originator","type":"address","internalType":"address"}],"outputs":[],"stateMutability":"nonpayable"},{"type":"function","name":"safeBatchTransferFrom","inputs":[{"name":"from","type":"address","internalType":"address"},{"name":"to","type":"address","internalType":"address"},{"name":"ids","type":"uint256[]","internalType":"uint256[]"},{"name":"amounts","type":"uint256[]","internalType":"uint256[]"},{"name":"data","type":"bytes","internalType":"bytes"}],"outputs":[],"stateMutability":"nonpayable"},{"type":"function","name":"safeTransferFrom","inputs":[{"name":"from","type":"address","internalType":"address"},{"name":"to","type":"address","internalType":"address"},{"name":"id","type":"uint256","internalType":"uint256"},{"name":"amount","type":"uint256","internalType":"uint256"},{"name":"data","type":"bytes","internalType":"bytes"}],"outputs":[],"stateMutability":"nonpayable"},{"type":"function","name":"sendSignal","inputs":[{"name":"targetNode_","type":"uint256","internalType":"uint256"},{"name":"signals","type":"uint256[]","internalType":"uint256[]"}],"outputs":[],"stateMutability":"nonpayable"},{"type":"function","name":"setApprovalForAll","inputs":[{"name":"operator","type":"address","internalType":"address"},{"name":"isApproved","type":"bool","internalType":"bool"}],"outputs":[],"stateMutability":"nonpayable"},{"type":"function","name":"setControl","inputs":[{"name":"newController","type":"address","internalType":"address"}],"outputs":[],"stateMutability":"nonpayable"},{"type":"function","name":"spawnBranch","inputs":[{"name":"fid_","type":"uint256","internalType":"uint256"}],"outputs":[{"name":"newID","type":"uint256","internalType":"uint256"}],"stateMutability":"nonpayable"},{"type":"function","name":"spawnBranchWithMembrane","inputs":[{"name":"fid_","type":"uint256","internalType":"uint256"},{"name":"tokens_","type":"address[]","internalType":"address[]"},{"name":"balances_","type":"uint256[]","internalType":"uint256[]"},{"name":"meta_","type":"string","internalType":"string"},{"name":"inflationRate_","type":"uint256","internalType":"uint256"}],"outputs":[{"name":"newID","type":"uint256","internalType":"uint256"}],"stateMutability":"nonpayable"},{"type":"function","name":"spawnRootBranch","inputs":[{"name":"fungible20_","type":"address","internalType":"address"}],"outputs":[{"name":"fID","type":"uint256","internalType":"uint256"}],"stateMutability":"nonpayable"},{"type":"function","name":"supportsInterface","inputs":[{"name":"interfaceId","type":"bytes4","internalType":"bytes4"}],"outputs":[{"name":"result","type":"bool","internalType":"bool"}],"stateMutability":"view"},{"type":"function","name":"symbol","inputs":[],"outputs":[{"name":"","type":"string","internalType":"string"}],"stateMutability":"view"},{"type":"function","name":"taxPolicyPreference","inputs":[{"name":"rootToken_","type":"address","internalType":"address"},{"name":"taxRate_","type":"uint256","internalType":"uint256"}],"outputs":[],"stateMutability":"nonpayable"},{"type":"function","name":"toAddress","inputs":[{"name":"x","type":"uint256","internalType":"uint256"}],"outputs":[{"name":"","type":"address","internalType":"address"}],"stateMutability":"pure"},{"type":"function","name":"toID","inputs":[{"name":"x","type":"address","internalType":"address"}],"outputs":[{"name":"","type":"uint256","internalType":"uint256"}],"stateMutability":"pure"},{"type":"function","name":"totalSupply","inputs":[{"name":"nodeId","type":"uint256","internalType":"uint256"}],"outputs":[{"name":"","type":"uint256","internalType":"uint256"}],"stateMutability":"view"},{"type":"function","name":"uri","inputs":[{"name":"id_","type":"uint256","internalType":"uint256"}],"outputs":[{"name":"","type":"string","internalType":"string"}],"stateMutability":"view"},{"type":"event","name":"ApprovalForAll","inputs":[{"name":"owner","type":"address","indexed":true,"internalType":"address"},{"name":"operator","type":"address","indexed":true,"internalType":"address"},{"name":"isApproved","type":"bool","indexed":false,"internalType":"bool"}],"anonymous":false},{"type":"event","name":"ConfigSignal","inputs":[{"name":"nodeId","type":"uint256","indexed":true,"internalType":"uint256"},{"name":"expressedOption","type":"bytes32","indexed":false,"internalType":"bytes32"}],"anonymous":false},{"type":"event","name":"CreatedEndpoint","inputs":[{"name":"endpoint","type":"address","indexed":true,"internalType":"address"},{"name":"owner","type":"address","indexed":true,"internalType":"address"},{"name":"nodeId","type":"uint256","indexed":true,"internalType":"uint256"}],"anonymous":false},{"type":"event","name":"InflationMinted","inputs":[{"name":"branchId","type":"uint256","indexed":true,"internalType":"uint256"},{"name":"amount","type":"uint256","indexed":false,"internalType":"uint256"}],"anonymous":false},{"type":"event","name":"InflationRateChanged","inputs":[{"name":"nodeId","type":"uint256","indexed":true,"internalType":"uint256"},{"name":"oldInflationRate","type":"uint256","indexed":false,"internalType":"uint256"},{"name":"newInflationRate","type":"uint256","indexed":false,"internalType":"uint256"}],"anonymous":false},{"type":"event","name":"MembershipMinted","inputs":[{"name":"branchId","type":"uint256","indexed":true,"internalType":"uint256"},{"name":"member","type":"address","indexed":true,"internalType":"address"}],"anonymous":false},{"type":"event","name":"MembraneChanged","inputs":[{"name":"nodeId","type":"uint256","indexed":true,"internalType":"uint256"},{"name":"previousMembrane","type":"uint256","indexed":false,"internalType":"uint256"},{"name":"newMembrane","type":"uint256","indexed":false,"internalType":"uint256"}],"anonymous":false},{"type":"event","name":"NewBranch","inputs":[{"name":"newId","type":"uint256","indexed":true,"internalType":"uint256"},{"name":"parentId","type":"uint256","indexed":true,"internalType":"uint256"},{"name":"creator","type":"address","indexed":true,"internalType":"address"}],"anonymous":false},{"type":"event","name":"NewRootBranch","inputs":[{"name":"rootBranchId","type":"uint256","indexed":true,"internalType":"uint256"}],"anonymous":false},{"type":"event","name":"SelfControlAtAddress","inputs":[{"name":"AgencyLocus","type":"address","indexed":false,"internalType":"address"}],"anonymous":false},{"type":"event","name":"Signaled","inputs":[{"name":"nodeId","type":"uint256","indexed":true,"internalType":"uint256"},{"name":"sender","type":"address","indexed":false,"internalType":"address"},{"name":"origin","type":"address","indexed":false,"internalType":"address"}],"anonymous":false},{"type":"event","name":"TransferBatch","inputs":[{"name":"operator","type":"address","indexed":true,"internalType":"address"},{"name":"from","type":"address","indexed":true,"internalType":"address"},{"name":"to","type":"address","indexed":true,"internalType":"address"},{"name":"ids","type":"uint256[]","indexed":false,"internalType":"uint256[]"},{"name":"amounts","type":"uint256[]","indexed":false,"internalType":"uint256[]"}],"anonymous":false},{"type":"event","name":"TransferSingle","inputs":[{"name":"operator","type":"address","indexed":true,"internalType":"address"},{"name":"from","type":"address","indexed":true,"internalType":"address"},{"name":"to","type":"address","indexed":true,"internalType":"address"},{"name":"id","type":"uint256","indexed":false,"internalType":"uint256"},{"name":"amount","type":"uint256","indexed":false,"internalType":"uint256"}],"anonymous":false},{"type":"event","name":"URI","inputs":[{"name":"value","type":"string","indexed":false,"internalType":"string"},{"name":"id","type":"uint256","indexed":true,"internalType":"uint256"}],"anonymous":false},{"type":"error","name":"AccountBalanceOverflow","inputs":[]},{"type":"error","name":"AlreadyMember","inputs":[]},{"type":"error","name":"ArrayLengthsMismatch","inputs":[]},{"type":"error","name":"BadLen","inputs":[]},{"type":"error","name":"BaseOrNonFungible","inputs":[]},{"type":"error","name":"BranchAlreadyExists","inputs":[]},{"type":"error","name":"BranchNotFound","inputs":[]},{"type":"error","name":"BurnE20TransferFailed","inputs":[]},{"type":"error","name":"CannotSkip","inputs":[]},{"type":"error","name":"Disabled","inputs":[]},{"type":"error","name":"EOA","inputs":[]},{"type":"error","name":"Endpoint","inputs":[]},{"type":"error","name":"ExecutionOnly","inputs":[]},{"type":"error","name":"IncompleteSign","inputs":[]},{"type":"error","name":"InsufficientAmt","inputs":[]},{"type":"error","name":"InsufficientBalance","inputs":[]},{"type":"error","name":"MembershipOp","inputs":[]},{"type":"error","name":"MembraneNotFound","inputs":[]},{"type":"error","name":"MintE20TransferFailed","inputs":[]},{"type":"error","name":"No","inputs":[]},{"type":"error","name":"NoControl","inputs":[]},{"type":"error","name":"NoSoup","inputs":[]},{"type":"error","name":"NoTimeDelta","inputs":[]},{"type":"error","name":"Noise","inputs":[]},{"type":"error","name":"NoiseNotVoice","inputs":[]},{"type":"error","name":"NotMember","inputs":[]},{"type":"error","name":"NotNodeMember","inputs":[]},{"type":"error","name":"NotOwnerNorApproved","inputs":[]},{"type":"error","name":"Overreach","inputs":[]},{"type":"error","name":"ResignalMismatch","inputs":[]},{"type":"error","name":"RootExists","inputs":[]},{"type":"error","name":"SignalOverflow","inputs":[]},{"type":"error","name":"TargetIsRoot","inputs":[]},{"type":"error","name":"TransferToNonERC1155ReceiverImplementer","inputs":[]},{"type":"error","name":"TransferToZeroAddress","inputs":[]},{"type":"error","name":"Unautorised","inputs":[]},{"type":"error","name":"Unqualified","inputs":[]},{"type":"error","name":"UnregisteredFungible","inputs":[]},{"type":"error","name":"UnsupportedTransfer","inputs":[]},{"type":"error","name":"isControled","inputs":[]}],"bytecode":{"object":"0x608060405234801561000f575f80fd5b50604051615aa1380380615aa183398101604081905261002e91610201565b5f8052600b60209081526103e87fdf7de25b7f1fd6d0b5205f0e18f1f35bd7b8d84cce336588d184533ce43a6f7655600180546001600160a01b0319166001600160a01b038516908117909155604080516390ef12cd60e01b81529051859385938593859391926390ef12cd926004808401938290030181865afa1580156100b8573d5f803e3d5ffd5b505050506040513d601f19601f820116820180604052508101906100dc9190610232565b600280546001600160a01b03199081166001600160a01b03938416179091556003805490911691831691909117905560408051808201909152600a8152692bb4b6362bb2973c3cbd60b11b6020820152600f9061013990826102ea565b5060408051808201909152600481526315d2531360e21b602082015260109061016290826102ea565b505060118054600160ff19909116811790915580546001600160a01b0319166001600160a01b038516908117909155604051633a8f06ab60e21b815230600482015290915063ea3c1aac906024015f604051808303815f87803b1580156101c7575f80fd5b505af11580156101d9573d5f803e3d5ffd5b50505050505050506103a9565b80516001600160a01b03811681146101fc575f80fd5b919050565b5f8060408385031215610212575f80fd5b61021b836101e6565b9150610229602084016101e6565b90509250929050565b5f60208284031215610242575f80fd5b61024b826101e6565b9392505050565b634e487b7160e01b5f52604160045260245ffd5b600181811c9082168061027a57607f821691505b60208210810361029857634e487b7160e01b5f52602260045260245ffd5b50919050565b601f8211156102e557805f5260205f20601f840160051c810160208510156102c35750805b601f840160051c820191505b818110156102e2575f81556001016102cf565b50505b505050565b81516001600160401b0381111561030357610303610252565b610317816103118454610266565b8461029e565b602080601f83116001811461034a575f84156103335750858301515b5f19600386901b1c1916600185901b1785556103a1565b5f85815260208120601f198616915b8281101561037857888601518255948401946001909101908401610359565b508582101561039557878501515f19600388901b60f8161c191681555b505060018460011b0185555b505050505050565b6156eb806103b65f395ff3fe608060405234801561000f575f80fd5b50600436106102e4575f3560e01c8063765063e511610195578063a6bfbc20116100e4578063e985e9c51161009e578063f242432a11610079578063f242432a1461073c578063f6355a561461074f578063f77914c314610762578063f87cc6b314610775575f80fd5b8063e985e9c5146106de578063eef2e75714610709578063f039a73314610729575f80fd5b8063a6bfbc2014610653578063b29eb75c14610673578063b390c0ab14610686578063baa38e6414610699578063bd85b039146106ac578063e0051aa9146106cb575f80fd5b806385752d031161014f578063a07622531161012a578063a0762253146105fa578063a0ce552d1461060d578063a22cb46514610620578063a5541c8414610633575f80fd5b806385752d03146105cc57806395d89b41146105df57806399f45689146105e7575f80fd5b8063765063e51461055a57806378adc7901461056d578063791ddaf9146105805780637d11e682146105935780637e44bffe146105a65780637f33d800146105b9575f80fd5b80631f0178411161025157806351d42f741161020b5780635b4a26ed116101e65780635b4a26ed1461051957806362593f601461052c57806367c394fb1461053f57806368dc274714610552575f80fd5b806351d42f74146104e0578063535e9891146104f35780635ac8260c14610506575f80fd5b80631f0178411461044957806320f944271461045c57806328ca8e261461046f5780632eb2c2d61461048257806345bbbf84146104955780634e1273f4146104c0575f80fd5b80630ffd3910116102a25780630ffd3910146103be57806313e75206146103d1578063150d503d146103f05780631b2ef1ca146104105780631d4ba506146104235780631e9b388d14610436575f80fd5b8062fdd58e146102e857806301ffc9a71461032757806306fdde03146103675780630d78d0c11461037c5780630e89341c146103915780630f336348146103a4575b5f80fd5b6103146102f636600461479e565b679a31110384e0b0c96020526014919091525f908152604090205490565b6040519081526020015b60405180910390f35b6103576103353660046147c8565b6301ffc9a760e09190911c90811463d9b67a26821417630e89341c9091141790565b604051901515815260200161031e565b61036f610788565b60405161031e919061481d565b61038f61038a36600461482f565b610814565b005b61036f61039f36600461482f565b61084c565b6103146103b2366004614846565b6001600160a01b031690565b6103146103cc366004614861565b61087d565b6103146103df36600461482f565b5f9081526006602052604090205490565b6104036103fe36600461479e565b61095d565b60405161031e919061489f565b61038f61041e366004614905565b610afa565b610314610431366004614a92565b610b08565b610314610444366004614905565b610bdc565b61038f61045736600461479e565b610c57565b61031461046a366004614905565b610cce565b61038f61047d366004614b82565b610cf0565b61038f610490366004614c45565b610ddb565b6104a86104a3366004614cfb565b611094565b6040516001600160a01b03909116815260200161031e565b6104d36104ce366004614d29565b61117f565b60405161031e9190614dc9565b6103146104ee366004614846565b6111ec565b6002546104a8906001600160a01b031681565b61038f610514366004614846565b611298565b61038f610527366004614ddb565b611321565b61035761053a36600461479e565b6116ed565b61031461054d36600461482f565b6117fd565b6104a8611848565b61031461056836600461482f565b611a1a565b6001546104a8906001600160a01b031681565b61038f61058e366004614905565b611a31565b6104a86105a136600461482f565b611a89565b6103146105b436600461482f565b611aa8565b6103146105c7366004614905565b611abb565b6103576105da36600461479e565b611b42565b61036f611b5f565b6104d36105f536600461482f565b611b6c565b61031461060836600461482f565b611bcb565b61031461061b36600461482f565b611c23565b61038f61062e366004614e2b565b611d7c565b610646610641366004614e57565b611d95565b60405161031e9190615104565b610666610661366004614cfb565b611e44565b60405161031e9190615166565b61038f610681366004615178565b61217e565b610314610694366004614905565b6121b8565b6103146106a736600461482f565b6121c3565b6103146106ba36600461482f565b5f9081526004602052604090205490565b6104a86106d936600461482f565b6121cd565b6103576106ec3660046151c3565b679a31110384e0b0c96020526014919091525f526034600c205490565b61071c61071736600461482f565b6121e9565b60405161031e91906151ef565b61038f610737366004614905565b612251565b61038f61074a366004615201565b61233c565b6104d361075d36600461482f565b612504565b61031461077036600461482f565b612610565b6106466107833660046151c3565b612638565b600f805461079590615277565b80601f01602080910402602001604051908101604052809291908181526020018280546107c190615277565b801561080c5780601f106107e35761010080835404028352916020019161080c565b820191905f5260205f20905b8154815290600101906020018083116107ef57829003601f168201915b505050505081565b61081d81612727565b604051339082907f6e620b3e7061133719ea50a8bf6357236acfaa795fbc1bb1c9e19ea6fe88a18d905f90a350565b60606108578261289a565b60405160200161086791906152a9565b6040516020818303038152906040529050919050565b5f8481526006602052604081205484146108aa57604051635f12529560e01b815260040160405180910390fd5b5f6108e36108b7866121cd565b5f87815260066020526040902054679a31110384e0b0c96020526014919091525f908152604090205490565b679a31110384e0b0c9602090815260148590525f878152604080822054600790935290205491925090633b9aca008211610922575f9350505050610955565b5f61092f84612710615310565b8261093a8986615310565b6109449190615310565b61094e919061533b565b9450505050505b949350505050565b5f8181526005602090815260408083208054825181850281018501909352808352606094938301828280156109af57602002820191905f5260205f20905b81548152602001906001019080831161099b575b5050505050905080516001600160401b038111156109cf576109cf614925565b604051908082528060200260200182016040528015610a0857816020015b6109f561466c565b8152602001906001900390816109ed5790505b5091505f5b8151811015610af1575f8585848481518110610a2b57610a2b6152e8565b6020026020010151604051602001610a459392919061534e565b60408051601f1981840301815291815281516020928301205f818152600a9093529082209092500154848381518110610a8057610a806152e8565b60200260200101515f60028110610a9957610a996152e8565b602090810291909101919091525f828152600a9091526040902060010154848381518110610ac957610ac96152e8565b6020026020010151600160028110610ae357610ae36152e8565b602002015250600101610a0d565b50505b92915050565b610b048282612929565b5050565b60035460405163333cabc560e01b81525f9182916001600160a01b039091169063333cabc590610b4090899089908990600401615378565b6020604051808303815f875af1158015610b5c573d5f803e3d5ffd5b505050506040513d601f19601f82011682018060405250810190610b8091906153ba565b9050610b8b876121c3565b5f8181526008602052604090208281554260019091015591508215610bbd57610bb883633b9aca00615310565b610bc4565b64e8d4a510005b5f838152600760205260409020555095945050505050565b5f8181526004602052604081205415610c4e575f82815260046020526040902054610c35610c09846121cd565b5f85815260066020526040902054679a31110384e0b0c96020526014919091525f908152604090205490565b610c3f9085615310565b610c49919061533b565b610c50565b5f5b9392505050565b600c546001600160a01b0316610c6b612995565b6001600160a01b031614610c92576040516385ea10fd60e01b815260040160405180910390fd5b80600103610cb35760405163023ad70560e31b815260040160405180910390fd5b6001600160a01b039091165f908152600b6020526040902055565b600a602052815f5260405f208160038110610ce7575f80fd5b01549150829050565b6001546001600160a01b03163314610d1b57604051630fc714ab60e01b815260040160405180910390fd5b610d258183611b42565b15610dc3576001600160a01b038181165f818152600960208181526040832080546001810182559084529083200180546001600160a01b03191694881694909417909355908490610d7691906153d1565b815260208082019290925260409081015f90812080546001810182559082528382200180546001600160a01b0319166001600160a01b0388169081179091558152600490925290205f1990555b610dd66001600160a01b038416836129db565b505050565b60115460ff1615610e8657610e8688888888808060200260200160405190810160405280939291908181526020018383602002808284375f9201919091525050604080516020808c0282810182019093528b82529093508b92508a9182918501908490808284375f9201919091525050604080516020601f8b0181900481028201810190925289815292508991508890819084018382808284375f92019190915250612ae392505050565b828514610e9a57633b800a465f526004601cfd5b8760601b679a31110384e0b0c9178760601b679a31110384e0b0c917816020528160601c99508060601c985088610ed85763ea553b345f526004601cfd5b893314610ef957335f526034600c2054610ef957634b6e7f185f526004601cfd5b8660051b5b8015610f66576020810390508087013583602052818a01355f5260405f20805480831115610f335763f4d678b85f526004601cfd5b8290039055602083905260405f20805480830181811015610f5b576301336cea5f526004601cfd5b90915550610efe9050565b505050604051604081528560051b602001604082018160208a03823781604001602084015281602088038383013750888a337f4a39dc06d4c0dbc64b70af90fd698a233a518aa5d07e595d983b8c0526c8f7fb60408586010186a45050610fca5f90565b15610fdf57610fdf8888888888888888612da2565b863b1561108a57865f5260405163bc197c81815233602082015288604082015260a060608201528560051b60200160c082018160208a0382378160a001806080850152826020890384840137820160a084015260208401601f19860183800183013750808101830160c401905060208282601c85015f80515af161106b573d1561106b573d5f833e3d82fd5b50805163bc197c8160e01b1461108857639c05499b5f526004601cfd5b505b5050505050505050565b5f61109f8284611b42565b6110bc576040516359c5ba6f60e11b815260040160405180910390fd5b6001546040516311eb232d60e21b8152336004820152602481018590526001600160a01b038481166044830152909116906347ac8cb4906064016020604051808303815f875af1158015611112573d5f803e3d5ffd5b505050506040513d601f19601f8201168201806040525081019061113691906153e4565b905082826001600160a01b0316826001600160a01b03167fcc812fbe8760ac7f5d76dc25596b5575304a089699833975adb3e253e8c627bd60405160405180910390a492915050565b606083821461119557633b800a465f526004601cfd5b6040519050818152602081018260051b8181016040525b80156111e257602081039050808701358060601b679a31110384e0b0c91760205250808501355f5260405f2054818301526111ac565b5050949350505050565b5f816001600160a01b03163b5f0361121757604051637dc5186f60e01b815260040160405180910390fd5b506001600160a01b0381165f818152600660205260409020541561124e57604051633293a2cf60e01b815260040160405180910390fd5b61125881826129db565b5f808154611265906153ff565b9091555060405181907ff0356fb3c74ce27ac4d5592412f419021eb7c3f6cad737979c381663b92eefc4905f90a2919050565b600c5f01546001600160a01b031633146112c5576040516330e1d31f60e21b815260040160405180910390fd5b600d546001600160a01b038281169116036113025750600d8054600c80546001600160a01b03199081166001600160a01b03841617909155169055565b600d80546001600160a01b0319166001600160a01b0383161790555b50565b5f8281526006602052604090205482900361134f57604051638c9b017f60e01b815260040160405180910390fd5b5f61136161135b612995565b84611b42565b600e549091506001600160a01b031615801561137b575080155b1561139957604051639db14b6d60e01b815260040160405180910390fd5b5f6113c06113a5612995565b679a31110384e0b0c96020526014525f858152604090205490565b5f858152600460205260409020549091506113de906127109061533b565b6114046113e9612995565b679a31110384e0b0c96020526014525f868152604090205490565b10156114235760405163ccf7064560e01b815260040160405180910390fd5b61142c846117fd565b505f6114396103b2612995565b5f8681526005602090815260408083208054825181850281018501909352808352949550929390929183018282801561148f57602002820191905f5260205f20905b81548152602001906001019080831161147b575b505050505090505f805b8651811015611671575f88858984815181106114b7576114b76152e8565b60200260200101516040516020016114e2939291909283526020830191909152604082015260600190565b60408051601f198184030181529190528051602090910120600e549091506001600160a01b0316158015906115145750865b801561155c575087828151811061152d5761152d6152e8565b6020026020010151600a5f8381526020019081526020015f205f60038110611557576115576152e8565b015414155b1561157a5760405163475b00dd60e01b815260040160405180910390fd5b861580156115a057505f888381518110611596576115966152e8565b6020026020010151115b156115be5760405163475b00dd60e01b815260040160405180910390fd5b60018211611617578782815181106115d8576115d86152e8565b60200260200101515f036115ec5750611669565b61161289898481518110611602576116026152e8565b6020026020010151848985612da7565b611667565b61163f89868a858151811061162e5761162e6152e8565b6020026020010151858c5189612e98565b878281518110611651576116516152e8565b60200260200101518361166491906153d1565b92505b505b600101611499565b50801580159061168357508061271014155b156116a157604051630442bea560e31b815260040160405180910390fd5b604080516001600160a01b038516815233602082015288917f1604fb598b9a5be3995e5119b73b1f4d1b9c28bf52b69b3cebcd6fa83dab630b910160405180910390a250505050505050565b5f6116fb836102f684612610565b60011461171b5760405163148fe22160e11b815260040160405180910390fd5b611723612995565b6001600160a01b0316836001600160a01b0316036117575761174f8361174884612610565b6001612fec565b506001610af4565b6003546001600160a01b03166389160e0e8461177285611aa8565b6040516001600160e01b031960e085901b1681526001600160a01b0390921660048301526024820152604401602060405180830381865afa1580156117b9573d5f803e3d5ffd5b505050506040513d601f19601f820116820180604052508101906117dd9190615417565b1590506117e982612610565b91508015610af457610af483836001612fec565b5f6118078261305d565b9050817f0d82c0920038b8dc7f633e18585f37092ba957b84876fcf833d6841f69eaa3278260405161183b91815260200190565b60405180910390a2919050565b600c545f906001600160a01b0316156118745760405163bdc7d58160e01b815260040160405180910390fd5b600154600254604051632ea8e39960e21b81526001600160a01b03918216600482015291169063bd8f46f990309063baa38e64906024016020604051808303815f875af11580156118c7573d5f803e3d5ffd5b505050506040513d601f19601f820116820180604052508101906118eb91906153ba565b6040518263ffffffff1660e01b815260040161190991815260200190565b6020604051808303815f875af1158015611925573d5f803e3d5ffd5b505050506040513d601f19601f8201168201806040525081019061194991906153e4565b600c5f0180546001600160a01b0319166001600160a01b03928316179055600354604080516301abf02960e51b81529051919092169163357e0520916004808301925f92919082900301818387803b1580156119a3575f80fd5b505af11580156119b5573d5f803e3d5ffd5b505050507ff890fc28c3f9900b0f626f2dbd8913e1cb84a7d771c3ca70f19ac3ed52cfde12600c5f600281106119ed576119ed6152e8565b01546040516001600160a01b03909116815260200160405180910390a150600c546001600160a01b031690565b5f818152600760205260408120815b015492915050565b5f611a3b83612504565b90505f5b8151811015611a7357611a6b828281518110611a5d57611a5d6152e8565b602002602001015184610afa565b600101611a3f565b8015611a8357611a838484610afa565b50505050565b600c8160028110611a98575f80fd5b01546001600160a01b0316905081565b5f81815260086020526040812081611a29565b5f80611ac684612504565b90505f805b8251811015611b38578060018451611ae39190615432565b611aed9190615432565b9150828281518110611b0157611b016152e8565b602002602001015195508560065f8881526020019081526020015f20540315611b3857611b2e8587610bdc565b9450600101611acb565b5092949350505050565b5f6001611b52846102f685612610565b10610af457506001610af4565b6010805461079590615277565b5f81815260056020908152604091829020805483518184028101840190945280845260609392830182828015611bbf57602002820191905f5260205f20905b815481526020019060010190808311611bab575b50505050509050919050565b5f80611bd683612504565b9050600191505b8051821015611c1457611c08818381518110611bfb57611bfb6152e8565b6020026020010151611c23565b50816001019150611bdd565b611c1d836117fd565b50610c50835b5f81815260066020526040812054808203611c5157604051636d9430a960e11b815260040160405180910390fd5b5f81815260066020526040902054819003611c6e57505f92915050565b611c77816117fd565b50604080516020808201869052818301849052825180830384018152606090920190925280519101205f611cc8611cad846121cd565b679a31110384e0b0c96020526014525f848152604090205490565b5f838152600a6020526040902090915060010154611ce69042615432565b5f838152600a6020526040902054611cfe9190615310565b935080841115611d0c578093505b5f828152600a602052604090204290600101558315611d7457611d74611d31846121cd565b611d3a876121cd565b8587604051602001611d60906d3932b234b9ba3934b13aba34b7b760911b8152600e0190565b6040516020818303038152906040526130f1565b505050919050565b604051633ac4266d60e11b815260040160405180910390fd5b606081516001600160401b03811115611db057611db0614925565b604051908082528060200260200182016040528015611de957816020015b611dd661468a565b815260200190600190039081611dce5790505b5090505f5b8251811015611e3e57611e19838281518110611e0c57611e0c6152e8565b60200260200101516130ff565b828281518110611e2b57611e2b6152e8565b6020908102919091010152600101611dee565b50919050565b611e4c61468a565b611e55836130ff565b90506001600160a01b03821615610af457679a31110384e0b0c960205260148290525f8381526040902054611e8e9061289a565b61289a565b815161012001525f611ea9846001600160a01b0385166153d1565b5f8181526009602052604090205490915015611f00575f8181526009602052604081208054611ef89290611edf57611edf6152e8565b5f918252602090912001546001600160a01b0316613425565b825161014001525b60408051600180825281830190925290816020015b6040805180820190915260608082526020820152815260200190600190039081611f1557505060c08301525f848152600560205260409020546001600160401b03811115611f6557611f65614925565b604051908082528060200260200182016040528015611f9e57816020015b611f8b6146cd565b815260200190600190039081611f835790505b508260c001515f81518110611fb557611fb56152e8565b602090810291909101810151919091525f858152600590915260409020546001600160401b03811115611fea57611fea614925565b60405190808252806020026020018201604052801561201d57816020015b60608152602001906001900390816120085790505b508260c001515f81518110612034576120346152e8565b6020026020010151602001819052505f5b5f85815260056020526040902054811015610af1575f858152600760205260408120612073915b015461289a565b8360c001515f81518110612089576120896152e8565b60200260200101515f015182815181106120a5576120a56152e8565b60200260200101516001600281106120bf576120bf6152e8565b60200201819052505f848660055f8981526020019081526020015f2084815481106120ec576120ec6152e8565b905f5260205f2001546040516020016121079392919061534e565b60408051601f1981840301815291815281516020928301205f818152600a9093529082209092506121379161206c565b8460c001515f8151811061214d5761214d6152e8565b602002602001015160200151838151811061216a5761216a6152e8565b602090810291909101015250600101612045565b600e80546001600160a01b0319166001600160a01b0383161790556121a38383611321565b5050600e80546001600160a01b031916905550565b5f610c50838361343b565b5f610af48261374d565b5f6001600160a01b0382116121e25781610af4565b5f92915050565b5f81815260096020908152604091829020805483518184028101840190945280845260609392830182828015611bbf57602002820191905f5260205f20905b81546001600160a01b031681526001909101906020018083116122285750505050509050919050565b5f82815260066020526040812054900361227e5760405163bd23392760e01b815260040160405180910390fd5b5f61228883612504565b90505f805b825181101561232a5780600184516122a59190615432565b6122af9190615432565b9150836122d86122bd612995565b679a31110384e0b0c96020526014525f878152604090205490565b10156122f757604051632f72e11160e21b815260040160405180910390fd5b61230185856121b8565b9350828281518110612315576123156152e8565b6020026020010151945080600101905061228d565b5061233584846121b8565b5050505050565b60115460ff16156123b9576123b98686612369876040805180820190915260018152602081019190915290565b60408051808201909152600181526020810188905286868080601f0160208091040260200160405190810160405280939291908181526020018383808284375f92019190915250612ae392505050565b8560601b679a31110384e0b0c9178560601b679a31110384e0b0c917816020528160601c97508060601c9650866123f75763ea553b345f526004601cfd5b87331461241857335f526034600c205461241857634b6e7f185f526004601cfd5b855f5260405f2091508154808611156124385763f4d678b85f526004601cfd5b8581038355508060205260405f209150815485810181811015612462576301336cea5f526004601cfd5b909255505060208390528486335f8051602061569683398151915260405fa4843b156124fc5760405163f23a6e61815233602082015286604082015284606082015283608082015260a080820152816020016020840360c08301376020818360c401601c84015f8a5af16124de573d156124de573d5f823e3d81fd5b805163f23a6e6160e01b146124fa57639c05499b5f526004601cfd5b505b505050505050565b5f818152600660205260409020546060906001905b6125248460016153d1565b811061255e575f81815260066020526040902054811461255e57612547826153ff565b5f9182526006602052604090912054909150612519565b816001600160401b0381111561257657612576614925565b60405190808252806020026020018201604052801561259f578160200160208202803683370190505b5092505f90505b81811015612609575f848152600660205260409020548360016125c98486615432565b6125d39190615432565b815181106125e3576125e36152e8565b6020908102919091018101919091525f94855260069052604090932054926001016125a6565b5050919050565b5f6804e1003b28d928000082111561263457610af4678ac7230489e8000083615445565b5090565b6001600160a01b0382165f81815260096020526040902054606091906001600160401b0381111561266b5761266b614925565b6040519080825280602002602001820160405280156126a457816020015b61269161468a565b8152602001906001900390816126895790505b5091505f5b5f82815260096020526040902054811015610af1575f8281526009602052604090208054612702916126fc91849081106126e5576126e56152e8565b5f918252602090912001546001600160a01b031690565b85611e44565b838281518110612714576127146152e8565b60209081029190910101526001016126a9565b5f81815260066020526040812054900361275457604051630401a66960e51b815260040160405180910390fd5b5f818152600660205260409020548190036127825760405163bd23392760e01b815260040160405180910390fd5b5f818152600460205260409020546001016127b057604051630cf32f7560e21b815260040160405180910390fd5b6127c16127bb612995565b82611b42565b156127df576040516340803a5f60e11b815260040160405180910390fd5b6003546001600160a01b03166389160e0e6127f8612995565b61280184611aa8565b6040516001600160e01b031960e085901b1681526001600160a01b0390921660048301526024820152604401602060405180830381865afa158015612848573d5f803e3d5ffd5b505050506040513d601f19601f8201168201806040525081019061286c9190615417565b6128895760405163b2cab42960e01b815260040160405180910390fd5b61131e612894612995565b8261388a565b60605f6128a68361390e565b60010190505f816001600160401b038111156128c4576128c4614925565b6040519080825280601f01601f1916602001820160405280156128ee576020820181803683370190505b5090508181016020015b5f19016f181899199a1a9b1b9c1cb0b131b232b360811b600a86061a8153600a85049450846128f857509392505050565b5f82815260066020526040812054900361295657604051635f12529560e01b815260040160405180910390fd5b610b04612961612995565b8383604051602001612981906766756e6769626c6560c01b815260080190565b6040516020818303038152906040526139e5565b5f80356001600160e01b031916632ca7add760e21b1480156129c15750600e546001600160a01b031615155b156129d65750600e546001600160a01b031690565b503390565b5f8281526006602052604090205415612a075760405163589ddbe960e11b815260040160405180910390fd5b5f828152600660205260409020819055818114610b04575f8181526005602090815260408220805460018101825590835290822001839055600990612a4b83612504565b5f81518110612a5c57612a5c6152e8565b602002602001015181526020019081526020015f20612a7a836121cd565b8154600180820184555f938452602080852090920180546001600160a01b0319166001600160a01b0394909416939093179092558483526004905260409091205401612ac4575050565b505f90815260076020526040902064e8d4a51000815542600290910155565b6304ed360560e51b5f356001600160e01b0319160115612335575f5b80845111156124fc575f848281518110612b1b57612b1b6152e8565b602002602001015190505f848381518110612b3857612b386152e8565b602002602001015190505f6001600160a01b0316886001600160a01b031614158015612b6c57506001600160a01b03871615155b8015612b8357505f82815260066020526040902054155b15612ba15760405163ce2d28e160e01b815260040160405180910390fd5b678ac7230489e80000821015612c60575f356001600160e01b031916630d78d0c160e01b141580612be457505f356001600160e01b031916630312c9fb60e51b14155b80612c0157505f356001600160e01b0319166314750bdd60e21b14155b80612c1e57505f356001600160e01b031916630ea5d28360e11b14155b80612c3b57505f356001600160e01b031916632ea8e39960e21b14155b612c5857604051630dbd110f60e21b815260040160405180910390fd5b505050612335565b5f356001600160e01b031916630d9778e560e11b1480612c9157505f356001600160e01b03191663791ddaf960e01b145b15612d98575f82815260066020526040902054829003612d4d57612cb4826121cd565b6040516323b872dd60e01b81526001600160a01b0389811660048301523060248301526044820184905291909116906323b872dd906064016020604051808303815f875af1158015612d08573d5f803e3d5ffd5b505050506040513d601f19601f82011682018060405250810190612d2c9190615417565b612d485760405162916a1960e51b815260040160405180910390fd5b612d98565b6011805460ff19169055612d8a612d62612995565b612d6b846121cd565b5f8581526006602052604081205490859061074a906001903681615458565b6011805460ff191660011790555b5050600101612aff565b61108a565b831561233557604080516020808201889052818301879052825180830384018152606090920183528151918101919091205f848152600a909252919020600101544203612e075760405163d445b7c360e01b815260040160405180910390fd5b835f03612e2057612e1b8683838887613a19565b612e2d565b612e2d8683838887613b78565b5f828152600a60209081526040808320426001918201556005835281842080549182018155845292829020909201879055905182815287917fb9fabdd20442c18b28ad124d92670b92dbc9b763d12cd509698e84d798e84cfb910160405180910390a2505050505050565b612ea3600283615432565b815114612ec357604051631b9103a360e11b815260040160405180910390fd5b5f858783612ed2600288615432565b81518110612ee257612ee26152e8565b6020026020010151604051602001612efc9392919061534e565b60408051808303601f1901815291815281516020928301205f818152600a90935291205490915061271086118015612f32575080155b15612f3e5750506124fc565b612710861115612f615760405163bb82191f60e01b815260040160405180910390fd5b85811461108a5760408051606081018252878152426020808301919091525f828401819052858152600a90915291909120612f9d9160036146f4565b50612fbd83612fad600288615432565b81518110611bfb57611bfb6152e8565b5061108a83612fcd600288615432565b81518110612fdd57612fdd6152e8565b60200260200101518984613c80565b5f8281526004602052604081208054839290613009908490615432565b90915550505f82815260066020526040902054821080156130315750678ac7230489e8000082115b156130525761303f826117fd565b50610dd661304b612995565b8383613dd1565b610dd6838383613dd1565b5f8181526006602052604081205482900361307957505f919050565b5f82815260076020526040902080546002909101546130989042615432565b6130a29190615310565b9050805f036130b257505f919050565b5f8281526007602052604090204290600201556040516834b7333630ba34b7b760b91b60208201526130ec90839081908490602901612981565b919050565b6123355f8686868686613ddd565b61310761468a565b6131108261289a565b8151525f8281526007602052604081206131299161206c565b81516020015261313e611e89610c09846121cd565b815160400152613153611e89611cad846121cd565b81516060015261316c611e89836105c76113e9826121cd565b815160800152613185611e89836105c76108b7826121cd565b815160a001525f8281526008602052604081206131a19161206c565b815160c001525f828152600660209081526040808320548151808401879052808301829052825180820384018152606090910183528051908401208452600a909252909120546131f491611e8991611abb565b815160e001525f82815260076020526040902061321290600261206c565b815161010001525f828152600460205260409020546132309061289a565b815161016001526003545f8381526008602052604090819020549051631ba2a35b60e31b815260048101919091526001600160a01b039091169063dd151ad8906024015f60405180830381865afa15801561328d573d5f803e3d5ffd5b505050506040513d5f823e601f3d908101601f191682016040526132b49190810190615528565b6040908101516020808401919091525f848152600982528290208054835181840281018401909452808452909183018282801561331857602002820191905f5260205f20905b81546001600160a01b031681526001909101906020018083116132fa575b505050505060408201526001546009905f9061333e9085906001600160a01b03166153d1565b81526020019081526020015f2080548060200260200160405190810160405280929190818152602001828054801561339d57602002820191905f5260205f20905b81546001600160a01b0316815260019091019060200180831161337f575b505050505060808201525f82815260056020908152604091829020805483518184028101840190945280845261340593928301828280156133fb57602002820191905f5260205f20905b8154815260200190600101908083116133e7575b5050505050613f48565b606082015261341b61341683612504565b613f48565b60a0820152919050565b6060610af46001600160a01b0383166014613ff3565b5f8281526006602052604081205481036134685760405163bd23392760e01b815260040160405180910390fd5b5f83815260066020526040902054831461348b576134868284610bdc565b61348d565b815b5f848152600660205260409020549091508314613549573063f242432a6134b3856121cd565b6134bb612995565b60065f8881526020019081526020015f2054856040516020016134e89063313ab93760e11b815260040190565b6040516020818303038152906040526040518663ffffffff1660e01b815260040161351795949392919061563c565b5f604051808303815f87803b15801561352e575f80fd5b505af1158015613540573d5f803e3d5ffd5b5050505061373b565b5f600b5f613556866121cd565b6001600160a01b0316815260208101919091526040015f2054156135a557600b5f613580866121cd565b6001600160a01b03166001600160a01b031681526020019081526020015f20546135d0565b5f8052600b6020527fdf7de25b7f1fd6d0b5205f0e18f1f35bd7b8d84cce336588d184533ce43a6f76545b90506135dc818461533b565b90505f6135e98285615432565b905080841161360b576040516337b936ed60e11b815260040160405180910390fd5b613614856121cd565b60025460405163a9059cbb60e01b81526001600160a01b0391821660048201526024810185905291169063a9059cbb906044016020604051808303815f875af1158015613663573d5f803e3d5ffd5b505050506040513d601f19601f820116820180604052508101906136879190615417565b801561371b5750613697856121cd565b6001600160a01b031663a9059cbb6136ad612995565b6040516001600160e01b031960e084901b1681526001600160a01b039091166004820152602481018490526044016020604051808303815f875af11580156136f7573d5f803e3d5ffd5b505050506040513d601f19601f8201168201806040525081019061371b9190615417565b61373857604051632ebc317760e21b815260040160405180910390fd5b50505b610af4613746612995565b8484612fec565b5f81815260066020526040812054810361376f5761376d6104ee836121cd565b505b61378061377a612995565b83611b42565b15801561379a57505f828152600660205260409020548214155b156137b85760405163148fe22160e11b815260040160405180910390fd5b5f828152600460205260409020546001016137e657604051630cf32f7560e21b815260040160405180910390fd5b5f8081546137f3906153ff565b90915550613805633b9aca0044615445565b5f546138114285615432565b61381b9190615432565b6138259190615432565b905061383b613833826121cd565b30600161418c565b61384581836129db565b33301461385757613857612894612995565b6040513390839083907fa7494a7bee85f8903db1b0e3d93a9d8fcb21c97e097d7fd5f2074dca680b622c905f90a4919050565b5f8181526009602090815260408220805460018101825590835291200180546001600160a01b0319166001600160a01b038416179055610b04826138cd83612610565b6040516bffffffffffffffffffffffff19606087901b1660208201526906d656d626572736869760b41b6034820152603e8101859052600190605e01612981565b5f8072184f03e93ff9f4daa797ed6e38ed64bf6a1f0160401b831061394c5772184f03e93ff9f4daa797ed6e38ed64bf6a1f0160401b830492506040015b6d04ee2d6d415b85acef81000000008310613978576d04ee2d6d415b85acef8100000000830492506020015b662386f26fc10000831061399657662386f26fc10000830492506010015b6305f5e10083106139ae576305f5e100830492506008015b61271083106139c257612710830492506004015b606483106139d4576064830492506002015b600a8310610af45760010192915050565b6139f1848484846141e4565b5f8381526004602052604081208054849290613a0e9084906153d1565b909155505050505050565b6001600160a01b03821080613a9d5750600354604051631ba2a35b60e31b8152600481018490526001600160a01b039091169063dd151ad8906024015f60405180830381865afa158015613a6f573d5f803e3d5ffd5b505050506040513d5f823e601f3d908101601f19168201604052613a969190810190615528565b6040015151155b15613abb57604051639cd2c44760e01b815260040160405180910390fd5b613ac8858585858561428f565b5f85815260046020908152604080832054868452600a90925290912054613af0906002615310565b111561233557613aff856117fd565b505f85815260086020526040812086917fe48aa5e298e92f05c7b7489cb783dd272acece1ed2b7aae5007022513a99761191015460408051918252602082018690520160405180910390a2604080518082018252838152426020808301919091525f8881526008909152919091206124fc91600261472e565b613b85858585858561428f565b5f85815260046020908152604080832054868452600a90925290912054613bad906002615310565b111561233557613bbc856117fd565b505f8581526007602052604090205485907f0ad1727523f8a97d260a40299bd81a21bbcdb605a771d1390f8fa163b2632caf90613bfd85633b9aca00615310565b6040805192835260208301919091520160405180910390a25f85815260076020526040902054613c3c908690613c3785633b9aca00615310565b614375565b604051806060016040528083633b9aca00613c579190615310565b81524260208083018290526040928301919091525f8881526007909152206124fc9160036146f4565b604080516020808201869052818301859052825180830384018152606090920183528151918101919091205f848152600a90925291812054613cc890869086906103cc612995565b5f848152600a6020526040902090915060010154421015613cfc5760405163d445b7c360e01b815260040160405180910390fd5b5f838152600a602052604090206002015415613d41575f838152600a602052604080822060020154848352908220805491929091613d3b908490615432565b90915550505b5f828152600a602052604081208054839290613d5e9084906153d1565b90915550505f84815260076020526040812001545f838152600a6020526040812001541115613da6575f84815260076020526040812001545f838152600a6020526040812001555b5f918252600a6020526040808320426001918201819055948452922091820192909255600201555050565b610dd65f848484614509565b60115460ff1615613e2557613e258585613e0a866040805180820190915260018152602081019190915290565b60408051808201909152600181526020810187905285612ae3565b8460601b8460601b80613e3f5763ea553b345f526004601cfd5b81679a31110384e0b0c9176020528760601b828114811517613e7557885f526034600c2054613e7557634b6e7f185f526004601cfd5b50845f5260405f20805480861115613e945763f4d678b85f526004601cfd5b8590039055679a31110384e0b0c9811760205260405f20805480860181811015613ec5576301336cea5f526004601cfd5b808355505050836020528060601c8260601c335f8051602061569683398151915260405fa45050613ef35f90565b15613f3457613f348585613f1a866040805180820190915260018152602081019190915290565b604080518082019091526001815260208101879052611a83565b833b156124fc576124fc85858585856145e2565b60605f82516001600160401b03811115613f6457613f64614925565b604051908082528060200260200182016040528015613f9757816020015b6060815260200190600190039081613f825790505b5090505f5b8351811015613fec57613fc7848281518110613fba57613fba6152e8565b602002602001015161289a565b828281518110613fd957613fd96152e8565b6020908102919091010152600101613f9c565b5092915050565b60605f614001836002615310565b61400c9060026153d1565b6001600160401b0381111561402357614023614925565b6040519080825280601f01601f19166020018201604052801561404d576020820181803683370190505b509050600360fc1b815f81518110614067576140676152e8565b60200101906001600160f81b03191690815f1a905350600f60fb1b81600181518110614095576140956152e8565b60200101906001600160f81b03191690815f1a9053505f6140b7846002615310565b6140c29060016153d1565b90505b6001811115614139576f181899199a1a9b1b9c1cb0b131b232b360811b85600f16601081106140f6576140f66152e8565b1a60f81b82828151811061410c5761410c6152e8565b60200101906001600160f81b03191690815f1a90535060049490941c9361413281615680565b90506140c5565b508315610c505760405162461bcd60e51b815260206004820181905260248201527f537472696e67733a20686578206c656e67746820696e73756666696369656e74604482015260640160405180910390fd5b8015159050679a31110384e0b0c960205282601452815f52806034600c2055805f525f1960601c8281168482167f17307eab39ab6107e8899845ad3d59bd9653f200f220920489ca2b5937696c3160205fa350505050565b60115460ff1615614211576142115f85613e0a866040805180820190915260018152602081019190915290565b8360601b806142275763ea553b345f526004601cfd5b679a31110384e0b0c960205284601452835f5260405f20805484810181811015614258576301336cea5f526004601cfd5b808355505050826020528060601c5f335f8051602061569683398151915260405fa450833b15611a8357611a835f858585856145e2565b5f848152600a60205260408120600101541180156142cc57505f848152600a60205260409020600101545f86815260086020526040902060010154105b15614316575f848152600a602052604090206002015415614316575f848152600a602052604080822060020154858352908220805491929091614310908490615432565b90915550505b60408051606081018252838152426020808301919091528183018490525f878152600a9091529190912061434b9160036146f4565b505f838152600a6020526040812080548392906143699084906153d1565b90915550505050505050565b5f838152600560209081526040808320805482518185028101850190935280835291929091908301828280156143c857602002820191905f5260205f20905b8154815260200190600101908083116143b4575b5050505050905080515f036143dd5750505050565b5f5b8151811015614491575f8282815181106143fb576143fb6152e8565b60200260200101518660405160200161441e929190918252602082015260400190565b60408051808303601f1901815291815281516020928301205f818152600a909352912054909150801561448757614460848481518110611bfb57611bfb6152e8565b505f8661446d8784615310565b614477919061533b565b5f848152600a6020526040902055505b50506001016143df565b5060408051606081018252838152426020808301829052828401919091525f8781526007909152919091206144c79160036146f4565b50604080518481526020810184905285917f0ad1727523f8a97d260a40299bd81a21bbcdb605a771d1390f8fa163b2632caf910160405180910390a250505050565b60115460ff161561455f5761455f835f614536856040805180820190915260018152602081019190915290565b60408051808201909152600181526020810186905260405180602001604052805f815250612ae3565b8260601b80679a31110384e0b0c917602052808560601b148560601b151761459b57845f526034600c205461459b57634b6e7f185f526004601cfd5b825f5260405f208054808411156145b95763f4d678b85f526004601cfd5b83810382555050816020525f8160601c335f8051602061569683398151915260405fa450611a83565b60405163f23a6e6181523360208201528560601b60601c604082015283606082015282608082015260a08082015281518060c0830152801561462e578060e08301826020860160045afa505b6020828260c401601c85015f8a5af161464f573d1561464f573d5f833e3d82fd5b50805163f23a6e6160e01b146124fc57639c05499b5f526004601cfd5b60405180604001604052806002906020820280368337509192915050565b6040518060e0016040528061469d61475b565b81526020016060815260200160608152602001606081526020016060815260200160608152602001606081525090565b60405180604001604052806002905b60608152602001906001900390816146dc5790505090565b8260038101928215614722579160200282015b82811115614722578251825591602001919060010190614707565b50612634929150614776565b82600281019282156147225791602002820182811115614722578251825591602001919060010190614707565b60408051610180810190915260608152600b602082016146dc565b5b80821115612634575f8155600101614777565b6001600160a01b038116811461131e575f80fd5b5f80604083850312156147af575f80fd5b82356147ba8161478a565b946020939093013593505050565b5f602082840312156147d8575f80fd5b81356001600160e01b031981168114610c50575f80fd5b5f81518084528060208401602086015e5f602082860101526020601f19601f83011685010191505092915050565b602081525f610c5060208301846147ef565b5f6020828403121561483f575f80fd5b5035919050565b5f60208284031215614856575f80fd5b8135610c508161478a565b5f805f8060808587031215614874575f80fd5b84359350602085013592506040850135915060608501356148948161478a565b939692955090935050565b602080825282518282018190525f919060409081850190868401855b828110156148f8578151845f5b60028110156148e5578251825291880191908801906001016148c8565b50505092840192908501906001016148bb565b5091979650505050505050565b5f8060408385031215614916575f80fd5b50508035926020909101359150565b634e487b7160e01b5f52604160045260245ffd5b604051608081016001600160401b038111828210171561495b5761495b614925565b60405290565b604051601f8201601f191681016001600160401b038111828210171561498957614989614925565b604052919050565b5f6001600160401b038211156149a9576149a9614925565b5060051b60200190565b5f82601f8301126149c2575f80fd5b813560206149d76149d283614991565b614961565b8083825260208201915060208460051b8701019350868411156149f8575f80fd5b602086015b84811015614a1457803583529183019183016149fd565b509695505050505050565b5f6001600160401b03821115614a3757614a37614925565b50601f01601f191660200190565b5f82601f830112614a54575f80fd5b8135614a626149d282614a1f565b818152846020838601011115614a76575f80fd5b816020850160208301375f918101602001919091529392505050565b5f805f805f60a08688031215614aa6575f80fd5b853594506020808701356001600160401b0380821115614ac4575f80fd5b818901915089601f830112614ad7575f80fd5b8135614ae56149d282614991565b81815260059190911b8301840190848101908c831115614b03575f80fd5b938501935b82851015614b2a578435614b1b8161478a565b82529385019390850190614b08565b985050506040890135925080831115614b41575f80fd5b614b4d8a848b016149b3565b95506060890135925080831115614b62575f80fd5b5050614b7088828901614a45565b95989497509295608001359392505050565b5f805f60608486031215614b94575f80fd5b8335614b9f8161478a565b9250602084013591506040840135614bb68161478a565b809150509250925092565b5f8083601f840112614bd1575f80fd5b5081356001600160401b03811115614be7575f80fd5b6020830191508360208260051b8501011115614c01575f80fd5b9250929050565b5f8083601f840112614c18575f80fd5b5081356001600160401b03811115614c2e575f80fd5b602083019150836020828501011115614c01575f80fd5b5f805f805f805f8060a0898b031215614c5c575f80fd5b8835614c678161478a565b97506020890135614c778161478a565b965060408901356001600160401b0380821115614c92575f80fd5b614c9e8c838d01614bc1565b909850965060608b0135915080821115614cb6575f80fd5b614cc28c838d01614bc1565b909650945060808b0135915080821115614cda575f80fd5b50614ce78b828c01614c08565b999c989b5096995094979396929594505050565b5f8060408385031215614d0c575f80fd5b823591506020830135614d1e8161478a565b809150509250929050565b5f805f8060408587031215614d3c575f80fd5b84356001600160401b0380821115614d52575f80fd5b614d5e88838901614bc1565b90965094506020870135915080821115614d76575f80fd5b50614d8387828801614bc1565b95989497509550505050565b5f815180845260208085019450602084015f5b83811015614dbe57815187529582019590820190600101614da2565b509495945050505050565b602081525f610c506020830184614d8f565b5f8060408385031215614dec575f80fd5b8235915060208301356001600160401b03811115614e08575f80fd5b614e14858286016149b3565b9150509250929050565b801515811461131e575f80fd5b5f8060408385031215614e3c575f80fd5b8235614e478161478a565b91506020830135614d1e81614e1e565b5f60208284031215614e67575f80fd5b81356001600160401b03811115614e7c575f80fd5b610955848285016149b3565b5f826101808101835f5b600c811015614ec1578383038752614eab8383516147ef565b6020978801979093509190910190600101614e92565b509095945050505050565b5f815180845260208085019450602084015f5b83811015614dbe5781516001600160a01b031687529582019590820190600101614edf565b5f8282518085526020808601955060208260051b840101602086015f5b84811015614f4f57601f19868403018952614f3d8383516147ef565b98840198925090830190600101614f21565b5090979650505050505050565b5f828251808552602080860195506005818360051b8501018287015f5b8581101561503e57601f19878403018a5281518051604080865281518187018190529091606082891b8801810192918a0191908801905f5b8181101561500f57898503605f190183528351858781015f5b6002811015614ffa578882038352614fe38285516147ef565b91508f840193508f83019250600181019050614fca565b5096505050928b0192918b0191600101614fb1565b505050509187015185830386890152916150298184614f04565b9c88019c955050509185019150600101614f79565b509098975050505050505050565b5f815160e0845261506060e0850182614e88565b90506020830151848203602086015261507982826147ef565b915050604083015184820360408601526150938282614ecc565b915050606083015184820360608601526150ad8282614f04565b915050608083015184820360808601526150c78282614ecc565b91505060a083015184820360a08601526150e18282614f04565b91505060c083015184820360c08601526150fb8282614f5c565b95945050505050565b5f60208083016020845280855180835260408601915060408160051b8701019250602087015f5b8281101561515957603f1988860301845261514785835161504c565b9450928501929085019060010161512b565b5092979650505050505050565b602081525f610c50602083018461504c565b5f805f6060848603121561518a575f80fd5b8335925060208401356001600160401b038111156151a6575f80fd5b6151b2868287016149b3565b9250506040840135614bb68161478a565b5f80604083850312156151d4575f80fd5b82356151df8161478a565b91506020830135614d1e8161478a565b602081525f610c506020830184614ecc565b5f805f805f8060a08789031215615216575f80fd5b86356152218161478a565b955060208701356152318161478a565b9450604087013593506060870135925060808701356001600160401b03811115615259575f80fd5b61526589828a01614c08565b979a9699509497509295939492505050565b600181811c9082168061528b57607f821691505b602082108103611e3e57634e487b7160e01b5f52602260045260245ffd5b7f68747470733a2f2f77696c6c77652e78797a2f6d657461646174612f0000000081525f82518060208501601c85015e5f9201601c0191825250919050565b634e487b7160e01b5f52603260045260245ffd5b634e487b7160e01b5f52601160045260245ffd5b8082028115828204841417610af457610af46152fc565b634e487b7160e01b5f52601260045260245ffd5b5f8261534957615349615327565b500490565b60609390931b6bffffffffffffffffffffffff191683526014830191909152603482015260540190565b606081525f61538a6060830186614ecc565b828103602084015261539c8186614d8f565b905082810360408401526153b081856147ef565b9695505050505050565b5f602082840312156153ca575f80fd5b5051919050565b80820180821115610af457610af46152fc565b5f602082840312156153f4575f80fd5b8151610c508161478a565b5f60018201615410576154106152fc565b5060010190565b5f60208284031215615427575f80fd5b8151610c5081614e1e565b81810381811115610af457610af46152fc565b5f8261545357615453615327565b500690565b5f8085851115615466575f80fd5b83861115615472575f80fd5b5050820193919092039150565b5f82601f83011261548e575f80fd5b8151602061549e6149d283614991565b8083825260208201915060208460051b8701019350868411156154bf575f80fd5b602086015b84811015614a1457805183529183019183016154c4565b5f82601f8301126154ea575f80fd5b81516154f86149d282614a1f565b81815284602083860101111561550c575f80fd5b8160208501602083015e5f918101602001919091529392505050565b5f6020808385031215615539575f80fd5b82516001600160401b038082111561554f575f80fd5b9084019060808287031215615562575f80fd5b61556a614939565b825182811115615578575f80fd5b8301601f81018813615588575f80fd5b80516155966149d282614991565b81815260059190911b8201860190868101908a8311156155b4575f80fd5b928701925b828410156155db5783516155cc8161478a565b825292870192908701906155b9565b845250505082840151828111156155f0575f80fd5b6155fc8882860161547f565b85830152506040830151935081841115615614575f80fd5b615620878585016154db565b6040820152606083015160608201528094505050505092915050565b6001600160a01b03868116825285166020820152604081018490526060810183905260a0608082018190525f90615675908301846147ef565b979650505050505050565b5f8161568e5761568e6152fc565b505f19019056fec3d58168c5ae7397731d063d5bbf3d657854427343f4c083240f7aacaa2d0f62a2646970667358221220f627fa37c5ba8daefe5eca1d9bd1f988980b78cc9a2a9733f9955cf0cbe0981564736f6c63430008190033","linkReferences":{}},"methodIdentifiers":{"Will()":"535e9891","allMembersOf(uint256)":"eef2e757","asRootValuation(uint256,uint256)":"7f33d800","balanceOf(address,uint256)":"00fdd58e","balanceOfBatch(address[],uint256[])":"4e1273f4","burn(uint256,uint256)":"b390c0ab","burnPath(uint256,uint256)":"f039a733","calculateUserTargetedPreferenceAmount(uint256,uint256,uint256,address)":"0ffd3910","control(uint256)":"7d11e682","createEndpointForOwner(uint256,address)":"45bbbf84","executionAddress()":"78adc790","getAllNodesForRoot(address,address)":"f87cc6b3","getChildrenOf(uint256)":"99f45689","getFidPath(uint256)":"f6355a56","getMembraneOf(uint256)":"7e44bffe","getNodeData(uint256,address)":"a6bfbc20","getNodes(uint256[])":"a5541c84","getParentOf(uint256)":"13e75206","getUserNodeSignals(address,uint256)":"150d503d","inParentDenomination(uint256,uint256)":"1e9b388d","inflationOf(uint256)":"765063e5","initSelfControl()":"68dc2747","isApprovedForAll(address,address)":"e985e9c5","isMember(address,uint256)":"85752d03","localizeEndpoint(address,uint256,address)":"28ca8e26","membershipEnforce(address,uint256)":"62593f60","membershipID(uint256)":"f77914c3","mint(uint256,uint256)":"1b2ef1ca","mintInflation(uint256)":"67c394fb","mintMembership(uint256)":"0d78d0c1","mintPath(uint256,uint256)":"791ddaf9","name()":"06fdde03","options(bytes32,uint256)":"20f94427","redistribute(uint256)":"a0ce552d","redistributePath(uint256)":"a0762253","resignal(uint256,uint256[],address)":"b29eb75c","safeBatchTransferFrom(address,address,uint256[],uint256[],bytes)":"2eb2c2d6","safeTransferFrom(address,address,uint256,uint256,bytes)":"f242432a","sendSignal(uint256,uint256[])":"5b4a26ed","setApprovalForAll(address,bool)":"a22cb465","setControl(address)":"5ac8260c","spawnBranch(uint256)":"baa38e64","spawnBranchWithMembrane(uint256,address[],uint256[],string,uint256)":"1d4ba506","spawnRootBranch(address)":"51d42f74","supportsInterface(bytes4)":"01ffc9a7","symbol()":"95d89b41","taxPolicyPreference(address,uint256)":"1f017841","toAddress(uint256)":"e0051aa9","toID(address)":"0f336348","totalSupply(uint256)":"bd85b039","uri(uint256)":"0e89341c"},"storageLayout":{"storage":[{"astId":52933,"contract":"src/WillWe.sol:WillWe","label":"entityCount","offset":0,"slot":"0","type":"t_uint256"},{"astId":52935,"contract":"src/WillWe.sol:WillWe","label":"executionAddress","offset":0,"slot":"1","type":"t_address"},{"astId":52937,"contract":"src/WillWe.sol:WillWe","label":"Will","offset":0,"slot":"2","type":"t_address"},{"astId":52940,"contract":"src/WillWe.sol:WillWe","label":"M","offset":0,"slot":"3","type":"t_contract(IMembrane)56740"},{"astId":52945,"contract":"src/WillWe.sol:WillWe","label":"totalSupplyOf","offset":0,"slot":"4","type":"t_mapping(t_uint256,t_uint256)"},{"astId":52951,"contract":"src/WillWe.sol:WillWe","label":"childrenOf","offset":0,"slot":"5","type":"t_mapping(t_uint256,t_array(t_uint256)dyn_storage)"},{"astId":52956,"contract":"src/WillWe.sol:WillWe","label":"parentOf","offset":0,"slot":"6","type":"t_mapping(t_uint256,t_uint256)"},{"astId":52963,"contract":"src/WillWe.sol:WillWe","label":"inflSec","offset":0,"slot":"7","type":"t_mapping(t_uint256,t_array(t_uint256)3_storage)"},{"astId":52970,"contract":"src/WillWe.sol:WillWe","label":"inUseMembraneId","offset":0,"slot":"8","type":"t_mapping(t_uint256,t_array(t_uint256)2_storage)"},{"astId":52976,"contract":"src/WillWe.sol:WillWe","label":"members","offset":0,"slot":"9","type":"t_mapping(t_uint256,t_array(t_address)dyn_storage)"},{"astId":52983,"contract":"src/WillWe.sol:WillWe","label":"options","offset":0,"slot":"10","type":"t_mapping(t_bytes32,t_array(t_uint256)3_storage)"},{"astId":52988,"contract":"src/WillWe.sol:WillWe","label":"taxRate","offset":0,"slot":"11","type":"t_mapping(t_address,t_uint256)"},{"astId":52992,"contract":"src/WillWe.sol:WillWe","label":"control","offset":0,"slot":"12","type":"t_array(t_address)2_storage"},{"astId":52994,"contract":"src/WillWe.sol:WillWe","label":"impersonatingAddress","offset":0,"slot":"14","type":"t_address"},{"astId":52996,"contract":"src/WillWe.sol:WillWe","label":"name","offset":0,"slot":"15","type":"t_string_storage"},{"astId":52998,"contract":"src/WillWe.sol:WillWe","label":"symbol","offset":0,"slot":"16","type":"t_string_storage"},{"astId":53000,"contract":"src/WillWe.sol:WillWe","label":"useBefore","offset":0,"slot":"17","type":"t_bool"}],"types":{"t_address":{"encoding":"inplace","label":"address","numberOfBytes":"20"},"t_array(t_address)2_storage":{"encoding":"inplace","label":"address[2]","numberOfBytes":"64","base":"t_address"},"t_array(t_address)dyn_storage":{"encoding":"dynamic_array","label":"address[]","numberOfBytes":"32","base":"t_address"},"t_array(t_uint256)2_storage":{"encoding":"inplace","label":"uint256[2]","numberOfBytes":"64","base":"t_uint256"},"t_array(t_uint256)3_storage":{"encoding":"inplace","label":"uint256[3]","numberOfBytes":"96","base":"t_uint256"},"t_array(t_uint256)dyn_storage":{"encoding":"dynamic_array","label":"uint256[]","numberOfBytes":"32","base":"t_uint256"},"t_bool":{"encoding":"inplace","label":"bool","numberOfBytes":"1"},"t_bytes32":{"encoding":"inplace","label":"bytes32","numberOfBytes":"32"},"t_contract(IMembrane)56740":{"encoding":"inplace","label":"contract IMembrane","numberOfBytes":"20"},"t_mapping(t_address,t_uint256)":{"encoding":"mapping","key":"t_address","label":"mapping(address => uint256)","numberOfBytes":"32","value":"t_uint256"},"t_mapping(t_bytes32,t_array(t_uint256)3_storage)":{"encoding":"mapping","key":"t_bytes32","label":"mapping(bytes32 => uint256[3])","numberOfBytes":"32","value":"t_array(t_uint256)3_storage"},"t_mapping(t_uint256,t_array(t_address)dyn_storage)":{"encoding":"mapping","key":"t_uint256","label":"mapping(uint256 => address[])","numberOfBytes":"32","value":"t_array(t_address)dyn_storage"},"t_mapping(t_uint256,t_array(t_uint256)2_storage)":{"encoding":"mapping","key":"t_uint256","label":"mapping(uint256 => uint256[2])","numberOfBytes":"32","value":"t_array(t_uint256)2_storage"},"t_mapping(t_uint256,t_array(t_uint256)3_storage)":{"encoding":"mapping","key":"t_uint256","label":"mapping(uint256 => uint256[3])","numberOfBytes":"32","value":"t_array(t_uint256)3_storage"},"t_mapping(t_uint256,t_array(t_uint256)dyn_storage)":{"encoding":"mapping","key":"t_uint256","label":"mapping(uint256 => uint256[])","numberOfBytes":"32","value":"t_array(t_uint256)dyn_storage"},"t_mapping(t_uint256,t_uint256)":{"encoding":"mapping","key":"t_uint256","label":"mapping(uint256 => uint256)","numberOfBytes":"32","value":"t_uint256"},"t_string_storage":{"encoding":"bytes","label":"string","numberOfBytes":"32"},"t_uint256":{"encoding":"inplace","label":"uint256","numberOfBytes":"32"}}},"id":65}