{"abi":[{"type":"function","name":"createMembrane","inputs":[{"name":"tokens_","type":"address[]","internalType":"address[]"},{"name":"balances_","type":"uint256[]","internalType":"uint256[]"},{"name":"meta_","type":"string","internalType":"string"}],"outputs":[{"name":"id","type":"uint256","internalType":"uint256"}],"stateMutability":"nonpayable"},{"type":"function","name":"gCheck","inputs":[{"name":"who_","type":"address","internalType":"address"},{"name":"membraneID_","type":"uint256","internalType":"uint256"}],"outputs":[{"name":"s","type":"bool","internalType":"bool"}],"stateMutability":"view"},{"type":"function","name":"getMembraneById","inputs":[{"name":"id_","type":"uint256","internalType":"uint256"}],"outputs":[{"name":"","type":"tuple","internalType":"struct Membrane","components":[{"name":"tokens","type":"address[]","internalType":"address[]"},{"name":"balances","type":"uint256[]","internalType":"uint256[]"},{"name":"meta","type":"string","internalType":"string"},{"name":"createdAt","type":"uint256","internalType":"uint256"}]}],"stateMutability":"view"},{"type":"function","name":"setInitWillWe","inputs":[],"outputs":[],"stateMutability":"nonpayable"},{"type":"function","name":"willWe","inputs":[],"outputs":[{"name":"","type":"address","internalType":"contract IFun"}],"stateMutability":"view"},{"type":"event","name":"MembraneCreated","inputs":[{"name":"creator","type":"address","indexed":false,"internalType":"address"},{"name":"membraneId","type":"uint256","indexed":false,"internalType":"uint256"},{"name":"CID","type":"string","indexed":false,"internalType":"string"}],"anonymous":false},{"type":"event","name":"WillWeSet","inputs":[{"name":"willWeAddress","type":"address","indexed":false,"internalType":"address"}],"anonymous":false},{"type":"error","name":"Membrane__EmptyFieldOnMembraneCreation","inputs":[]},{"type":"error","name":"Membrane__UnauthorizedWillWeSet","inputs":[]},{"type":"error","name":"membraneNotFound","inputs":[]}],"bytecode":{"object":"0x6080604052348015600e575f80fd5b50610e408061001c5f395ff3fe608060405234801561000f575f80fd5b5060043610610055575f3560e01c8063333cabc514610059578063357e05201461007f57806389160e0e14610089578063a17f3e33146100ac578063dd151ad8146100d7575b5f80fd5b61006c610067366004610a21565b6100f7565b6040519081526020015b60405180910390f35b610087610245565b005b61009c610097366004610afd565b6102b9565b6040519015158152602001610076565b6001546100bf906001600160a01b031681565b6040516001600160a01b039091168152602001610076565b6100ea6100e5366004610b25565b610687565b6040516100769190610ba4565b5f825184511461011a57604051631ea02bc360e31b815260040160405180910390fd5b81515f0361013b57604051631ea02bc360e31b815260040160405180910390fd5b61016560405180608001604052806060815260200160608152602001606081526020015f81525090565b848152602080820185905260408083018590524260608401525161018b91839101610ba4565b60408051601f1981840301815291815281516020928301205f8181528084529190912083518051929550849391926101c69284920190610816565b5060208281015180516101df9260018501920190610879565b50604082015160028201906101f49082610cca565b50606082015181600301559050507fd96d2e189d8be6703b1c656c080a48a6d3f5f9622e7fe952110232ebbb0a4dda33838560405161023593929190610d8a565b60405180910390a1509392505050565b6001546001600160a01b03161561026f57604051637913e76b60e01b815260040160405180910390fd5b600180546001600160a01b031916339081179091556040519081527f68e0e5615e0f0beac903df596e5f37d76055e23925dde4e747a159ed0170424f9060200160405180910390a1565b5f818152602081815260408083208151815460a0948102820185019093526080810183815285949193849284919084018282801561031e57602002820191905f5260205f20905b81546001600160a01b03168152600190910190602001808311610300575b505050505081526020016001820180548060200260200160405190810160405280929190818152602001828054801561037457602002820191905f5260205f20905b815481526020019060010190808311610360575b5050505050815260200160028201805461038d90610c46565b80601f01602080910402602001604051908101604052809291908181526020018280546103b990610c46565b80156104045780601f106103db57610100808354040283529160200191610404565b820191905f5260205f20905b8154815290600101906020018083116103e757829003601f168201915b505050505081526020016003820154815250509050600191505f5b81515181101561067e57600154825180516001600160a01b03909216918390811061044c5761044c610db9565b60200260200101516001600160a01b031603610517578280156105105750600154602083015180516001600160a01b03909216916385752d039188918590811061049857610498610db9565b60200260200101516040518363ffffffff1660e01b81526004016104d19291906001600160a01b03929092168252602082015260400190565b602060405180830381865afa1580156104ec573d5f803e3d5ffd5b505050506040513d601f19601f820116820180604052508101906105109190610dcd565b9250610676565b846001600160a01b0316825f0151828151811061053657610536610db9565b60200260200101516001600160a01b03160361058e57846001600160a01b03168260200151828151811061056c5761056c610db9565b60200260200101510361058457600192505050610681565b5f92505050610681565b81518051829081106105a2576105a2610db9565b60200260200101516001600160a01b03163b5f03156106765781518051829081106105cf576105cf610db9565b60209081029190910101516040516370a0823160e01b81526001600160a01b038781166004830152909116906370a0823190602401602060405180830381865afa92505050801561063d575060408051601f3d908101601f1916820190925261063a91810190610df3565b60015b156106765783801561066c57508260200151828151811061066057610660610db9565b60200260200101518110155b935050821561067e575b60010161041f565b50505b92915050565b6106b160405180608001604052806060815260200160608152602001606081526020015f81525090565b5f82815260208181526040918290208251815460a09381028201840190945260808101848152909391928492849184018282801561071657602002820191905f5260205f20905b81546001600160a01b031681526001909101906020018083116106f8575b505050505081526020016001820180548060200260200160405190810160405280929190818152602001828054801561076c57602002820191905f5260205f20905b815481526020019060010190808311610758575b5050505050815260200160028201805461078590610c46565b80601f01602080910402602001604051908101604052809291908181526020018280546107b190610c46565b80156107fc5780601f106107d3576101008083540402835291602001916107fc565b820191905f5260205f20905b8154815290600101906020018083116107df57829003601f168201915b505050505081526020016003820154815250509050919050565b828054828255905f5260205f20908101928215610869579160200282015b8281111561086957825182546001600160a01b0319166001600160a01b03909116178255602090920191600190910190610834565b506108759291506108b2565b5090565b828054828255905f5260205f20908101928215610869579160200282015b82811115610869578251825591602001919060010190610897565b5b80821115610875575f81556001016108b3565b634e487b7160e01b5f52604160045260245ffd5b604051601f8201601f1916810167ffffffffffffffff81118282101715610903576109036108c6565b604052919050565b5f67ffffffffffffffff821115610924576109246108c6565b5060051b60200190565b80356001600160a01b0381168114610944575f80fd5b919050565b5f82601f830112610958575f80fd5b8135602061096d6109688361090b565b6108da565b8083825260208201915060208460051b87010193508684111561098e575f80fd5b602086015b848110156109aa5780358352918301918301610993565b509695505050505050565b5f82601f8301126109c4575f80fd5b813567ffffffffffffffff8111156109de576109de6108c6565b6109f1601f8201601f19166020016108da565b818152846020838601011115610a05575f80fd5b816020850160208301375f918101602001919091529392505050565b5f805f60608486031215610a33575f80fd5b833567ffffffffffffffff80821115610a4a575f80fd5b818601915086601f830112610a5d575f80fd5b81356020610a6d6109688361090b565b82815260059290921b8401810191818101908a841115610a8b575f80fd5b948201945b83861015610ab057610aa18661092e565b82529482019490820190610a90565b97505087013592505080821115610ac5575f80fd5b610ad187838801610949565b93506040860135915080821115610ae6575f80fd5b50610af3868287016109b5565b9150509250925092565b5f8060408385031215610b0e575f80fd5b610b178361092e565b946020939093013593505050565b5f60208284031215610b35575f80fd5b5035919050565b5f815180845260208085019450602084015f5b83811015610b6b57815187529582019590820190600101610b4f565b509495945050505050565b5f81518084528060208401602086015e5f602082860101526020601f19601f83011685010191505092915050565b60208082528251608083830152805160a084018190525f9291820190839060c08601905b80831015610bf15783516001600160a01b03168252928401926001929092019190840190610bc8565b50838701519350601f19925082868203016040870152610c118185610b3c565b93505050604085015181858403016060860152610c2e8382610b76565b92505050606084015160808401528091505092915050565b600181811c90821680610c5a57607f821691505b602082108103610c7857634e487b7160e01b5f52602260045260245ffd5b50919050565b601f821115610cc557805f5260205f20601f840160051c81016020851015610ca35750805b601f840160051c820191505b81811015610cc2575f8155600101610caf565b50505b505050565b815167ffffffffffffffff811115610ce457610ce46108c6565b610cf881610cf28454610c46565b84610c7e565b602080601f831160018114610d2b575f8415610d145750858301515b5f19600386901b1c1916600185901b178555610d82565b5f85815260208120601f198616915b82811015610d5957888601518255948401946001909101908401610d3a565b5085821015610d7657878501515f19600388901b60f8161c191681555b505060018460011b0185555b505050505050565b60018060a01b0384168152826020820152606060408201525f610db06060830184610b76565b95945050505050565b634e487b7160e01b5f52603260045260245ffd5b5f60208284031215610ddd575f80fd5b81518015158114610dec575f80fd5b9392505050565b5f60208284031215610e03575f80fd5b505191905056fea2646970667358221220130fcb902ca772fca3f4f1b43b90a5cf1933ff38d5dfb5eaeb621661a9a4779e64736f6c63430008190033","linkReferences":{}},"methodIdentifiers":{"createMembrane(address[],uint256[],string)":"333cabc5","gCheck(address,uint256)":"89160e0e","getMembraneById(uint256)":"dd151ad8","setInitWillWe()":"357e0520","willWe()":"a17f3e33"},"storageLayout":{"storage":[{"astId":55409,"contract":"src/Membranes.sol:Membranes","label":"membraneById","offset":0,"slot":"0","type":"t_mapping(t_uint256,t_struct(Membrane)56704_storage)"},{"astId":55412,"contract":"src/Membranes.sol:Membranes","label":"willWe","offset":0,"slot":"1","type":"t_contract(IFun)56691"}],"types":{"t_address":{"encoding":"inplace","label":"address","numberOfBytes":"20"},"t_array(t_address)dyn_storage":{"encoding":"dynamic_array","label":"address[]","numberOfBytes":"32","base":"t_address"},"t_array(t_uint256)dyn_storage":{"encoding":"dynamic_array","label":"uint256[]","numberOfBytes":"32","base":"t_uint256"},"t_contract(IFun)56691":{"encoding":"inplace","label":"contract IFun","numberOfBytes":"20"},"t_mapping(t_uint256,t_struct(Membrane)56704_storage)":{"encoding":"mapping","key":"t_uint256","label":"mapping(uint256 => struct Membrane)","numberOfBytes":"32","value":"t_struct(Membrane)56704_storage"},"t_string_storage":{"encoding":"bytes","label":"string","numberOfBytes":"32"},"t_struct(Membrane)56704_storage":{"encoding":"inplace","label":"struct Membrane","numberOfBytes":"128","members":[{"astId":56696,"contract":"src/Membranes.sol:Membranes","label":"tokens","offset":0,"slot":"0","type":"t_array(t_address)dyn_storage"},{"astId":56699,"contract":"src/Membranes.sol:Membranes","label":"balances","offset":0,"slot":"1","type":"t_array(t_uint256)dyn_storage"},{"astId":56701,"contract":"src/Membranes.sol:Membranes","label":"meta","offset":0,"slot":"2","type":"t_string_storage"},{"astId":56703,"contract":"src/Membranes.sol:Membranes","label":"createdAt","offset":0,"slot":"3","type":"t_uint256"}]},"t_uint256":{"encoding":"inplace","label":"uint256","numberOfBytes":"32"}}},"id":64}